:100000000C943A0A0C94570A0C94570A0C94570A09
:100010000C94570A0C94570A0C94570A0C94570ADC
:100020000C94570A0C94570A0C94F5150C94691A01
:100030000C94D6230C94570A0C94570A0C94570A24
:100040000C94570A0C94570A0C94570A0C94570AAC
:100050000C94570A0C94CE160C94570A0C94570A19
:100060000C94570A0C94570A0C94570A0C94570A8C
:100070000C94570A0C94570A0C94570A0C94570A7C
:100080000C94570A0C94570A0C94570A0C94570A6C
:100090000C94570A0C94570A0C94570A0C94570A5C
:1000A0000C94570A0C94570A0C94570A05A84CCD87
:1000B000B2D44EB93836A9020C50B9918688083CA2
:1000C000A6AAAA2ABE000000803F05010902A101DC
:1000D00085020901A100050919012908150025015A
:1000E0009508750181020501093009311581257FC7
:1000F00095027508810609381581257F95017508D7
:100100008106050C0A38021581257F950175088145
:1001100006C0C005010980A101850319012AB700A5
:10012000150126B700950175108100C0050C090165
:10013000A101850419012AA002150126A00295013A
:1001400075108100C00660FF0961A10109621500F8
:1001500026FF009520750881020963150026FF001F
:10016000952075089102C005010906A1010507192E
:10017000E029E715002501950875018102950175B3
:100180000881010507190029FF150026FF009506C3
:100190007508810005081901290595057501910269
:1001A000950175039101C0000000000000000000EF
:1001B000000000000000000000000000000000003F
:1001C00000000000000000000000007E0F00D4FFCF
:1001D000FFFFC70000007800000000000000002AB8
:1001E0002B280000000000000000000000000000BC
:1001F000000029000000002C1E3420212224342677
:1002000027252E362D3738271E1F2021222324256F
:10021000263333362E37381F0405060708090A0B24
:100220000C0D0E0F101112131415161718191A1B96
:100230001C1D2F3130232D350405060708090A0B34
:100240000C0D0E0F101112131415161718191A1B76
:100250001C1D2F3130354C01048E966E773EFE7E8C
:100260005F1DB8F2664EFF5D19B0C20469542AD60C
:100270002EBFDD19B0C3E529B1E023A5A9B1C100A6
:1002800082674C1A978D795120C7068E7C7C7A76CE
:100290004FFD5930E2460E9EBEDF1D9991A0A5A1EB
:1002A000A9D022C6EF5C1B958990A2A7CCFB55284C
:1002B000B3E44AF76C3BF46A562EDE1F9DB8D305B3
:1002C0008892A6CE1EBEDF1D99B0E246EF5C0711F4
:1002D0005D980B9D9497EE4E45336B44C729562786
:1002E00030C6A7D5F256DFB43862CBA0B6E30F8490
:1002F000062405656F7689B577412782666582CCCD
:10030000D5E620D52717C5F803237C5F64A51DC15A
:10031000D636CB4CD4DB66D78BB1997E6F4C36404A
:1003200006D6EBD7A2E4F495515A5496D55344D748
:100330008CE0B94068D218E9DD9A239248EE7F43F9
:10034000AFEA7738848C0A72AF69F8DDF12483A3B1
:10035000F84ABFF59413DBBBD8B4B3A0FB4550609B
:100360003059123171A2D313E7FAE7CE0F63150BA0
:100370006B94BB378326059DFB4692FC0A15D10D75
:100380007392D68C1B8CB8558ACEBDFE8EFCED09BF
:1003900012839182513123FBB40C76AD7CD9B44BDE
:1003A000B26714099C7F0C18BA3BD68E142AE41B42
:1003B000529F2B7DE1FB6A3302FAAC5AF23E887EF3
:1003C000AED1F378E805D1E3DC21F6E19ABD170E52
:1003D000D9469B8803EAF666BE0E1B5049964097A5
:1003E000F1F1E480A66EE87734BF294044C2FF4EA5
:1003F00098D39CA3322B76510409E7A9D1A632B138
:100400002353E247ABD6F5695C3E5FFAAE4520E583
:10041000D244FF39326DFD27575CFDF0DEC1B5993E
:10042000E5F51C770175C56D5892F2B247000126BB
:10043000967A30FFB7F0EF77C18A5DDCC0D1293002
:100440001E77387A94F1B87A7EEFA4D1AC314AF2B3
:100450005D643DB2E2F00899FC70EE24A77EEE1ECA
:1004600020697D44BF8742DF883B0CDA42C904F92A
:100470004550FC838F116A72BC9995F0AC3DA73B47
:10048000CD1CE2887937115F3989950A16847AF68E
:100490008AA428E4ED83803BB123A50310F466EA27
:1004A000BB0C0FC5EC6C69C5D324ABD42AB79988B3
:1004B0007608A0A8957CD8386DCD5902514BF1B57E
:1004C0002B50E3B6BDD072CF9EFD6EBB44C8248ACC
:1004D00077188A1306EF977DFA81F031E6FA77ED07
:1004E0003106315B548A9F3068DBE240F84E73FA84
:1004F000AB748B105813DCD2E678D1322E8A9F2C45
:1005000058064827C5A95E8147894621910370A4F2
:100510003E889CDA330ACEBC8B8ECF9FD37180434A
:10052000CF6BA95183763082C56A853911501A8202
:10053000DC1E1CD57DA9719933471997B35AB1DFD9
:10054000EDA4F2E62684A2289A9EDFA66AF4D6FCE1
:100550002E5B9D1A2A2768FBC183214B90E036DD74
:100560005B314255A013F7D089537199570929C5BA
:10057000F321F8372F40F3D4AF16083602FC77C5C5
:100580008B049056B9C9679A99E800D386FF972DD6
:1005900008E9B7B391BCDF45C6ED0F8C4C1EE65B96
:1005A0006E3830E4AAE395DEB9E49AF5B2559A873D
:1005B0009BF66AB2F2779A31F47A31D11D04C07C8D
:1005C00032A29E9AF562F8278DBF51FFD3DF6437C0
:1005D0003F2A6F763A7D77069E777F5EEB3251F940
:1005E00016669A09F3B008A470964630FFDA4FE910
:1005F0001BED8DF8741F3192B3731736DB9130D633
:1006000088556B3477877AE7EE06C61C8C190C4840
:1006100046235E9C075CBFB47ED64F749CE2C550F7
:100620008BC58B159060625729D01343A1808891A8
:100630000044C74D1986CC2F2A755AFCEB972A70B7
:10064000E378D891B04F9907A395EA2421D5DE51DC
:100650002093270A3073A8FF8A97E9A76A8E0DE8CE
:10066000F0DFECEAB46C1D392A622D3D5A8B65F837
:1006700090052E7E912C78EF8E7AC12FAC78EEAF5C
:100680002845064C26AF3BA2DBA39306B53CA5D874
:10069000EE8FAF25CC3F856848A962CC978F7F2A23
:1006A000EAE0150AAD6207BD45F841D836CB4CDB10
:1006B0006EE63AE7DA15E9291E1210A0142C0E3D59
:1006C000F4BF394192750B257BA3CE399C1564C8C4
:1006D000FA3DEF7327FE262ECEDA6EFD718EDDFE1B
:1006E00076EEDC125C02C53A4E4E4FBFCA4015C7CB
:1006F0006E8D41F110E04F7E977F1CAE478E6BB13F
:100700002531B073C71B9779F980D36622300774FF
:100710001EE4D08021D6EE6B6C4FBFF5B7D90987A8
:100720002FA914BE27D9725001D41373A6A7510262
:100730007525E1B345347DA88EEBF31649CB4F8C7C
:10074000A1B9368539755D0800AEEBF6EAD7133AE4
:10075000215A5F3084522695C914F257556BB11057
:10076000C2E1BD3B51C0B7554C711226C70DF951BE
:10077000A43802057FB8F1724BBF718914F3773842
:10078000D97124F30011A1D8D46927083735C911CC
:100790009D901C0EE71CFF2D1EE892E11810957C21
:1007A000E080F4964321F975216438DD9F1E95168B
:1007B000DA561D4F9A53B2E2E418CB6B1A65EB562A
:1007C000C63BE5FED8263F3A84597266A2F375FF10
:1007D000FB60B322AD3F2D6BF9EBEA057CD88F6D42
:1007E0002C989E2B93F15E46F08749297368D77F3A
:1007F000F9F0E57DDB1D7519F3C4589B1788A892A5
:10080000E0BEBD8B1D8D9F5676ADAF29E2D9D55286
:10081000F6B55635573AC8E156431994D3049B6D43
:1008200035D80B5F4D198EECFA64910A72202BBCFF
:100830001A4AFE8BFDBBED1B23EAAD7282A12999FA
:1008400071BDF095C103DD7BC2B23C2854D368A4CE
:1008500072C86696E0D1D87FF8D1262BF7ADBA558D
:10086000CA15B932C3E588978E5CFB92258BBFA26F
:1008700045557AA76F8B575BCF0ECB1DFB20827738
:10088000A88CCC16CE1DFADECC0B62FECCE1B7F004
:10089000C381647340A0C24D8911753355338DE80F
:1008A0004AFDEA6E300BD7312CDE47E3BFF85542E4
:1008B000E27F59E517EF99346991B1238E20872D96
:1008C000A8FED58AF3843AF037E4090054EE67496C
:1008D00093E48170E3904DEFFE41B7997BC183BAF9
:1008E00062126F7DDE6BAFDA16F95551EEA60C2B56
:1008F00002A3FD8DFB3017E46FDF3671C4CA872574
:1009000048B047ECEAB4BFA54D9B9F0293C4E3E413
:10091000E8422D6881150AEB845BD6A874FB7D1D27
:10092000CB2CDA462A7662CEBC5C9E8BE7CFBE78B3
:10093000F57CEBB33A9CAA6FCC72D159F21123D655
:100940003F48D1B7CEB0BFCBEA80DE57D45E972FF9
:1009500075D1508E802C6679BF724BBD8A816CD365
:10096000E101DCD21526C536DA2C1AC02794EDB782
:100970009B850B5E8097C5EC4FEC885D5007354733
:10098000DC0B3B3DDD60AFA85D813824255D5C1547
:10099000D1DEB3ABEC0569EF83ED5754B864641155
:1009A000163269DA9F2D7F36BB445A34E87FBF0385
:1009B000EB007F59682279CF736C2C29A7A15F388F
:1009C000A11DF02053E01A6314587110AA080C3EC0
:1009D000161A6022827FBAA443A0D0AC1BD56B64E8
:1009E000B51493319E5350D05766EE5A4FFB032AED
:1009F000695876F183F74EBA8C4206605D6DCE6021
:100A000088AEA4C3F103A54B98A1FF67E1ACA2B8DF
:100A100062D76FA031B4D277AF211006C69AFF1DFE
:100A200009170E5FF1AA54344B458A8763A6DCF997
:100A3000243067C6B2D6613369EE50615728E77E2D
:100A4000EEEC3A5A734EA88DE418EAEC4164C8E221
:100A5000E866B62DB6FB6A6C16B3DD4643B9730083
:100A60006A71ED4E9D251AC33C4A9515993581143E
:100A700002D6989BECD8233B8429AF0C9983A69A85
:100A8000344FFAE8D03C4BD0FBB668B89E8FCDF718
:100A9000602D7A22E57DAB651B95A7A87FB67747C9
:100AA0007B5F8B1272D0D491EFDE19503CA78BC4C0
:100AB000A9B323CB76E681F0C1048FA3B8545B972A
:100AC000AC19FF3F55272FE01D429B57FC4B4E0FA3
:100AD000CE98A9435703BDE7C894DF6E367332B48E
:100AE000EF2E857A6EFC6C188275359007F3E49FC3
:100AF0003EDC68F3B5F31980920699A2E86FFF2EE9
:100B00007FAE42A45FFBD40E812BC304FF2BB374D2
:100B10004E365B9C1500C6472BE88B3DF19C039A33
:100B2000587F9B9CBF854979352E567B41143947A8
:100B30008326AA078998111B86E7737AD87D786186
:100B400053E979F5368D449284F91350583BA46AE1
:100B50003665498E3C0EF16FD284C47E8E3F39AE2D
:100B60007C84F163378E3CCC3E448145F14BB9ED3A
:100B70006B365DBB20601A0FA3AA55773AA9AE3732
:100B80004DBAB8866BBC0850F6CCA4BD1D4072A50A
:100B900086FAE210AE3D584B97F34374A99EEB21C1
:100BA000B701A4869397EE2F4F3B86A1416F412654
:100BB00090785C7F30384B3FAAECED5C6F0EAD4314
:100BC00087FD9335E601EF412690999EFB195BADB9
:100BD000D2918AE046AF65FA4F84C1A12DCF458BF3
:100BE000D38550557CF96788D44EE9D76B6154A101
:100BF000A4A6A2C2BF309C409F5FD7692B24825E0F
:100C0000D9D6A712541AF7559F7650A99584E66B4A
:100C10006DB59654D6CDB3A19B46A7944DC494B45C
:100C200098E3E1E234D533160754CDB77753DB4F61
:100C30004D469DE9D49C8A36B6B838266C0EFF9C8A
:100C40001B438B80CCB93DDAC7F18AF26DB8D774FB
:100C50002F7E1EB7D34AB4ACFC79486CBC96B694D0
:100C600046572DB0A3FC1EB95260852D41D04301DB
:100C70001E1CD57DFCF3960DC7CB2A299A93DD88DF
:100C80002D375DAAFB4968A09C50867F685657F9AE
:100C9000791839D4E001843361CAA5D2D6E4C98A6F
:100CA0004A23444EBCF0DC24A1A0C4E2073C10C49B
:100CB000B5254B6563F480E7CF61B1718221872C44
:100CC000F59100320CECA9B59A7485E3368F764F16
:100CD0009C6DCEBCAD0A4BED7604CBC3B9339E01FF
:100CE0009396697DC5A245799B045C8409ED884390
:100CF000C7AB931426A140B5CE4EBF2A42853E2CE9
:100D00003B54E8121F0E9759B22789FAF2DF8E681A
:100D100059DC06BCB6850D0622ECB1CBE504E63DF8
:100D2000B3B04173083F3C588663EB50EE1D2C373F
:100D300074A9D318A3476E9354AD0A5DB82A555DC4
:100D400078F6EEBE8E3C7669B940C234EC2AB9ED35
:100D50007E20E48D0038C7E68F44A886CEEB2AE9D2
:100D600090F14CDF32FB731B6D921E95FEB4DB6578
:100D7000DF4D23548948BF4A2E70D6D762B4332939
:100D8000B13A334C236DA676A5216348E6905DED1C
:100D900090950B7A84BEB80D5E630C62264C145A93
:100DA000B3AC23A474A76F333005600142A028B709
:100DB000EE1938F164808243E141271F1F90547A75
:100DC000D5232ED13DCB28BA587FDC7C9124E9284D
:100DD00051836EC5562142EDA05622A140806BA8DA
:100DE000F794CA136B0C39D9FDE9F36FA69EFC701A
:100DF0008AB3BC593C1E1D6CF97CAFF9887195EB28
:100E00005700BD9F8C4FE12483C522EAFDD30CE23D
:100E100017187C6A4CDE77B4539B4C81CD2360AAB3
:100E20000E25739C02793230DF74DF7519F4A51436
:100E30005CF77AA8A591847C6003063BCD50B62769
:100E40009CFEB1DDCCD3B05924B2CAE21C81229DF4
:100E5000078F8EB9BE4EFAFC3965BABF9D12375E58
:100E6000977EF389F55DF5E3098C62B5209D0C53FF
:100E70008A681BD28F75175DD4E5DA756219146A1A
:100E8000262DEBF8AF37F06CA455B1BCE233C09A15
:100E9000CAB011494F689B3B6B3CCC13F6C78561C8
:100EA0006842AEBBDDCD4516291DEADBC803943C84
:100EB000EE4F8211C3EC28BD970599DED7BB5E22A9
:100EC0001FD4EB64D992D985B76A056AE42441F14D
:100ED000CDF0D83FF89E0ECD0B7A706B5A750A6A2A
:100EE0003388EC17750870102F24CFC4E9420061D5
:100EF00094CA1F3A7606FAD24881F077600345D942
:100F000061F4A46F3DD930C3046B542AB7EC3BF4B1
:100F10004BF5685226CEFF5D1991A0A3A5A9B1E0BB
:100F200023C40A774DF95120A3A5A9B1C100828637
:100F30008E7F5D1991A0A3C4EB540B756852078C8A
:100F40009A978D79706246EF5C1B95897141E1211A
:100F5000A1A1A1C002674C1AB6CFFD785324ABB54E
:100F6000C9F16023A5C812876D5813858892876DD3
:100F70005832C70C9A97ACDA36EE5E3EDF1DB8F2F7
:100F8000662FBDF87247ED5813858892878C7B5584
:100F90000990A2C6EF3DF85324ABD42AB7EC5A36D9
:100FA000EE5E3EDF3CFA764FFD5930E246EF3DF80B
:100FB00053056931C10082868E7F5D19B0E227CC6E
:100FC000FB744B148B948B756833C50892878C9A8D
:100FD000B6CF1CBAD70D98B2E62FDC1B958971608D
:100FE00023C40A968F9CBAF66E3FFC5B15A8D226E6
:100FF000AFBDF872662FDC1BB4CB148B94AAB7CDAF
:10100000F951018082866F3DD930E227CCFB744BC9
:1010100014AAB7CDF97043046B35C9F16023A5C894
:10102000F3450892876D5832E62FBDF872664E1E62
:10103000BEFE7E7E7E5F1D9991A0A3C40A774D18E7
:1010400093A4ABD40B754910A2C6EF3DF85324AB63
:10105000B5E833E44A16AEDE1FBCDB15A8B3C508FD
:101060007345E931C1E121A1A1A1C002866F5C3ABB
:10107000D70D9893A4CA16AEDE1F9D99B0E246EF35
:101080003DF872470C9AB6CFFD5911A0A3A5C8F33D
:10109000450892876D39F043048A96AEDE3EDF1D27
:1010A0009991A0C2066F3DF872470C9A978D98935C
:1010B00085887345E931E023A5A9D003848A96AEDB
:1010C000DE1FBCDB15A8D226CEFF5D199181808280
:1010D000672DD813A4ABD40B94AAB7CDF95120A394
:1010E000A5C8F345E95022C6EF5C3AD70D98938521
:1010F0008873644AF74DF95120A3C40A96AEDE3EC8
:10110000FE7E7E7E5F3CFA764FFD7872662FBDD9FB
:1011100030C3E54812878C7B5528D2078C9A97AC50
:10112000DA178D795120A3C4EB540B948B94AAD673
:101130002EBFFC5B15A8D226AFDC1BB4EA37EC3B14
:10114000F46A37CD1893856931C1E140E325C812AF
:10115000878C9AB6CFFD5911A0C2068E7F5D38F2FA
:10116000470C7B746A37EC5A36EE3FFC7A764F1C9C
:101170009B95897141006344EB542AD60F9CBAD7E2
:101180000D9893856931C10082868E9EBEDF3CFA40
:10119000572CDA36EE3FFC5B158971410082868E52
:1011A0007F5D38F247ED5813A4CAF74DF95101801D
:1011B0006344EB542AD62EBFDD1991A0A3A5A9B193
:1011C000E042068E7F5D1991A0A3C40A968F7D78B8
:1011D00072470C7B746A562EDE1FBCFA570D79518C
:1011E000016121A1C0E325A9B1C1E14002674C1A08
:1011F000978D9893A4ABD42AD60F9C9BB4CB14AAFA
:10120000B7CDF95120A3C4EB35C9F16042068E7FFA
:101210007C7A766E3FFC7A766E5E3EFE7E5F3CDBCD
:1012200015897141E121C0E344EB542AB7CDF9702F
:101230006227ADD832C70C7B744B14AAB7EC3BD5F0
:1012400028D2076D39D120C2E74C1A978D98B2C7C2
:101250000C5928F39B2B0014001A000800150017E6
:1012600000E00004001600070009000A00E1001D6C
:10127000001B000600190005006500E2002C422C4E
:1012800041F600F4002A00130012000C0018001CA4
:1012900000340033000F000E000D000B002D00384D
:1012A00000370036001000110000004C002A002812
:1012B00000F400F50029001E021F02200221022274
:1012C00002E00000000000000000000000E1003526
:1012D0000035026400310200000000000000000040
:1012E00000000000002A0027022602250224022313
:1012F000023402330230002F0030022F022D023858
:1013000002370236022E022E00000000000000000C
:10131000000000000029001E001F00200021002204
:1013200000E0003A003B003C003D003E00E1003F91
:1013300000400041004200430000000000000000A7
:1013400000000000002A00270026002500240023BA
:1013500000330234022D028702520065002D00384E
:101360000037004F00510050000000000000000056
:10137000000000000000000000000000000000C2AB
:101380005C00000000C95CC75CC55CC35C00000079
:1013900000CA5CC85CC65CC45C00000000000000C1
:1013A00000000000000000B45DB55DB35DB25DB744
:1013B0005D00000000000000000000B65D000000BD
:1013C00000000000000000B85D0000000000000008
:1013D000000000000009025B00030100A0FA0904FC
:1013E0000000010301010009211101000122400058
:1013F0000705810308000109040100020300000041
:1014000009211101000122220007058203200001A9
:101410000705030320000109040200010300000086
:10142000092111010001227B00070584032000012E
:1014300012010002000000082817530001000102F9
:1014400000010E036D00610070006F003400380071
:1014500000001C036D0061005F0070006F005F0002
:10146000640061006900730075006B006900000092
:101470000403090411241FBECFEFDAE0DEBFCDBFA5
:1014800011E0A0E0B1E0E2E5F9E502C005900D92BF
:10149000A438B107D9F722E0A4E8B1E001C01D9259
:1014A000A935B207E1F70E94FD230C947E2C0C9421
:1014B0000000E8EDF0E080818E7F80831092E200F2
:1014C0001092DA001092E100A0EEB0E08C91816001
:1014D0008C9380818F77808319BCA7EDB0E08C91CD
:1014E0008E7F8C9380818F7E808310923D02089541
:1014F0002091E4003091E50095E6A9012091EC00EF
:10150000822F817020FF06C08091E80080FF06C016
:1015100080E008952091E80022FD1AC080914B02DE
:10152000882389F0853089F08091EB0085FD0FC01C
:101530002091E4003091E50042175307F9F29150F1
:10154000E1F684E0089582E0089583E0089581E063
:101550000895EF92FF920F931F93CF937C018B011D
:101560000E94780AC82F811117C08091E80085FD7C
:101570000BC08091E8008E778093E8000E94780A83
:10158000882399F3C82F08C0F70181917F018093C8
:10159000F1000150110949F78C2FCF911F910F9144
:1015A000FF90EF90089580914D0287FF13C08091C6
:1015B000E80082FF06C08091E8008B778093E80006
:1015C00004C080914B028111F2CF089580914B02AB
:1015D0008823D9F38091E80080FFF8CF8091E8005C
:1015E0008E77ECCF982F9093E900242F762F50E040
:1015F000891731F07091EC002091ED005091F000CE
:1016000021FD07C09F5F973071F78093E90081E06B
:1016100008953091EB003E7F3093EB003091ED0068
:101620003D7F3093ED003091EB0031603093EB0063
:101630007093EC002093ED005093F0002091EE00A9
:1016400027FDE0CF80E00895B0E0A0E0EAE2FBE013
:101650000C94C929C8EDD0E088818F7E8883E7ED9E
:10166000F0E080818160808384E082BF81E08093AC
:101670003D0288818E7F888302EE10E0F80110829F
:101680001092DA0081EEC82ED12CF60110828881EA
:101690008F77888388818068888388818F7D88831D
:1016A00019BC10924B0210924C0210924A021092F6
:1016B000490290EEE92EF12CF70180818B7F808327
:1016C00088818160888342E060E080E00E94F20AC5
:1016D000F60180818E7F8083F80180818160808324
:1016E000808188608083F70180818E7F80838881FC
:1016F00080618883CDB7DEB7E8E00C94E529FC0172
:10170000809153029091540286179707A0F06115BB
:10171000710529F49091E8009E779093E80090E09D
:101720006115710551F4911108C08091E80082FFA4
:1017300034C080E00895BC01F2CF80914B02882331
:10174000C1F18530C1F18091E80083FD30C0809106
:10175000E80082FDEACF8091E80080FFE1CF809130
:10176000F3002091F200382F6115710519F028302F
:10177000310558F091E02830310509F090E02091D2
:10178000E8002E772093E800CBCF81918093F10081
:10179000615071092F5F3F4FE7CF80914B02882343
:1017A00041F0853041F08091E80083FFBECF81E0B9
:1017B000089582E0089583E008950895809140029D
:1017C000089587E797E7909301088093000888E1E0
:1017D0009AE00FB6F894A895809360000FBE90939E
:1017E0006000FFCF9C014FB7F89480913602909132
:1017F0003702A0913802B09139024FBF821B930B80
:1018000008959C01FC0132969FEF80E041914617BC
:1018100051F09F3F19F4411101C0982F8F5F86301E
:10182000A9F79F3F09F40895290F311D97FD3A95B7
:10183000F901628308952091330230913402281710
:10184000390771F09093340280933302E0913102B2
:10185000F0913202309721F00084F185E02D099556
:10186000089520912F02309130022817390771F026
:101870009093300280932F02E0913102F091320276
:10188000309721F00680F781E02D09950895E091C9
:101890003102F0913202309739F022E0DC012C93D2
:1018A0000480F581E02D09950895E0913102F091D1
:1018B0003202309729F00190F081E02D09950895CA
:1018C00080E0089540911E02803F59F480911F02EC
:1018D00087FF0DC010921F0241110BC0109207022A
:1018E00008C0813F81F480911F0218169CF34423A5
:1018F00081F08091200290912102892B09F05AC039
:10190000109206020895823F49F447FFF0CF1092EB
:101910001E0280911F028111ECCFE0CF833F19F4AA
:101920001416ACF3E4CF90912002893F29F41916E4
:10193000F4F610922002DBCF8A3F19F497FFD7CF3D
:10194000F8CF909121028B3F29F497FFD0CF1092CE
:101950002102CDCF8C3F19F41916CCF3C8CF9CE0EF
:10196000980F953090F4845F990B21E030E0B90135
:1019700002C0660F771F8A95E2F7CB0180959091A0
:101980001D02892380931D02B2CF8D3F31F48091D7
:1019900008028E7F80930802AACF8E3F21F48091A7
:1019A00008028D7FF7CF8F3F09F0A1CF8091080209
:1019B0008B7FF0CF08958091080280FD16C081FDD5
:1019C00016C082FD16C0809106028823A1F08832DD
:1019D00080F428E0829FC001112468E270E00E9438
:1019E0009E29862F672B39F0089582E0089584E0C0
:1019F000089588E0089581E008958091080280FDAF
:101A000014C081FD14C082FD16C080910702882396
:101A100081F08E3180F420E5829FC00111246EE1B7
:101A200070E00E949E29862F089584E1089588E23F
:101A3000089588E0089580E50895803F31F40E947C
:101A4000FD0C819580931F020895813F19F40E9437
:101A5000FD0CF8CF823F31F40E94FD0C81958093FC
:101A60001E020895833F19F40E94FD0CF8CF893FB0
:101A700029F40E94DB0C8093200208958A3F21F410
:101A80000E94DB0C8195F7CF8B3F31F40E94DB0C79
:101A900081958093210208958C3F19F40E94DB0CFC
:101AA000F8CF9CE0980F953070F4845F990B21E09B
:101AB00030E001C0220F8A95EAF780911D02822B47
:101AC00080931D0208958D3F31F48091080281605A
:101AD0008093080208958E3F21F48091080282606D
:101AE000F7CF8F3FB9F7809108028460F1CF80E093
:101AF00008959091F00192FF06C0282F2871283098
:101B0000F9F4877F846093FF06C0282F287128315D
:101B1000F1F4877E84612091F10120FF06C0382F07
:101B200038713830D9F4877F816021FF06C0282FB3
:101B300028712831D1F4877E816194FD877E0895D4
:101B4000282F24712430F9F68B7F8860DCCF282F72
:101B50002471243101F78B7E8861DDCF382F3171FC
:101B6000313019F78E7F8860E0CF282F2171213125
:101B700021F78E7E8861E1CFCF93DF93EC0182382D
:101B80009105B1F108F040C08133910509F49DC081
:101B900048F58932910509F48DC08A9709F49CC0F3
:101BA000C11521E5D20708F0C3C0C11530E5D30740
:101BB00008F01EC1C83ED10508F0A3C0C13ED10542
:101BC00088F5C83AD10508F08EC0C53AD10508F0AD
:101BD00007C1C130D10531F1209721F1C430D105C1
:101BE00008F545C08533910509F45FC0C997C1F672
:101BF0008091F001837009F043C18091F10183FF6E
:101C000011C0C9E2D0E00EC0833E910599F170F495
:101C1000803E910501F1823E910511F68091F0011F
:101C200082FD21C0CE01DF91CF910895863E9105BE
:101C300061F1873E910571F1843E910509F0B0CFC5
:101C40008091F10181FFEECF8091F001C7EED0E0ED
:101C500084FD0DC0E7CF8091F00180FD33C09091ED
:101C6000F10190FFDFCFC3EED0E084FFDBCFD0E007
:101C7000C0E0D8CF8091F00182FDFFC09091F101CA
:101C800090FDFEC084FFCECFF2CF8091F00183FDA6
:101C9000DDCFC8CF8091F00183FDF5C09091F101B7
:101CA00091FFF0CFC4EED0E0BDCF8091F00185FF71
:101CB000B9CFA7CF8091F00185FDE8C08091F101F7
:101CC00083FFB0CFC9E3D0E0ADCF8091F00186FFB4
:101CD000A9CFCAE2D0E0A6CF8091F00186FFA2CFC3
:101CE000C1E3D0E09FCFCF3BD10508F6C85AD0E082
:101CF000CC0FDD1FCF5EDE4F0990D881C02DD4649C
:101D000091CFC11540E2D40758F4C11581E0D8073E
:101D100008F088CFC03FD10508F4A9CFD06582CFA5
:101D2000C11520E4D20708F4A2CFDF70D06A7ACFC1
:101D3000C11535E5D30718F5C11544E5D40708F0FA
:101D400084C0C11583E5D80708F06BC0C11522E532
:101D5000D20708F461C0CE018370992721E030E0FA
:101D600002C0220F331F8A95E2F7C695C69580E21E
:101D7000C89FE0011124C22BD32BDC6853CFC115BF
:101D800039E5D307A8F4C11548E5D40708F062C0C7
:101D9000C11586E5D80708F06ACF8C2F0E94790D0F
:101DA000C82FD0E0DC2FCC27CC27DF71D0623ACF10
:101DB000C1152AE5D20708F452C0CE01905681150C
:101DC000904208F054CF8D2F8F710E94790D90E0D2
:101DD000982F882788279F719C012C2BE901E6CF3B
:101DE000C55AD0E0C25FDE4FC881D0E0D0641ACFC0
:101DF000CE018370992721E030E002C0220F331F0B
:101E00008A95E2F7C695C69540E2C49FE001112489
:101E1000C22BD32BDD6806CFDC2FCC27C16FD06A55
:101E200001CFCE018370992721E030E002C0220F5C
:101E3000331F8A95E2F7C695C69540E2C49FE0013C
:101E40001124C22BD32BDA68EDCEDC2FCC27C46F44
:101E5000D06AE8CEDC2FCC27C06FD06AE3CE8C2FBF
:101E60008F700E94790D34E0D695C7953A95E1F7C9
:101E7000CF709C2FEC01D069D5CEC2EED0E0D2CE8F
:101E8000C0EED0E0CFCEC6EED0E0CCCEC5E3D0E001
:101E9000C9CE8091E30181111092E30108958095EC
:101EA00090913E02982390933E0208958091D8012C
:101EB0009091A701981301C008958F5F8770FACFA2
:101EC000292F983078F5863068F590E036E0239F2A
:101ED000800D911D1124682F677023E096958795DA
:101EE0002A95E1F7FC01EE0FFF1FE80FF91FE157FC
:101EF000FE4F50E040E080E0219130E0062E02C02D
:101F0000369527950A94E2F721703327042E01C0F5
:101F1000220F0A94EAF7822B4F5F5F4F433051053F
:101F200059F7089580E00895292F983098F5863064
:101F300088F590E036E0239F800D911D1124282F15
:101F4000277041E001C0440F2A95EAF723E09695F7
:101F500087952A95E1F7FC01EE0FFF1FE80FF91FA7
:101F6000E157FE4F30E020E070E05191DF01119722
:101F7000CB01022E02C0969587950A94E2F78170F4
:101F800081958527842385278C932F5F3F4F2330AE
:101F9000310559F70895982F92959F7011F0892F68
:101FA00094E0282F2695269511F09E5F822F869526
:101FB00009F09F5F892F0895CF93C82F0E94CB0F00
:101FC000823021F0833041F0813031F481E0809320
:101FD00015028C2FCF91089510921502FACFCF934E
:101FE00028E030E043E060E086E30E948828C82FC4
:101FF000811105C00E9460298C2FCF91089585E042
:102000008A95F1F70000F8CF80933A0270933C0272
:1020100060933B0280914B028430F9F48093E90095
:102020008FEF9091E800815095FD06C095ED9A954F
:10203000F1F700008111F5CF8091E80085FF0DC018
:1020400050E040E063E070E08AE392E00E94A90A79
:102050008091E8008E778093E8000895BC0184E0C9
:102060000E9404100895BC0183E00E9404100895AA
:102070009C0184E08093E9009FEF8091E8009150FB
:1020800085FD06C085ED8A95F1F700009111F5CF29
:102090008091E80085FF0CC050E040E066E070E011
:1020A000C9010E94A90A8091E8008E778093E80018
:1020B0000895CF93DF93EC0181E08093E9008FEFE7
:1020C0009091E800815095FD06C095ED9A95F1F745
:1020D00000008111F5CF8091E80085FF14C050E029
:1020E00040E068E070E0CE010E94A90A8091E8001B
:1020F0008E778093E80088E0FE01A1E4B2E00190D1
:102100000D928A95E1F7DF91CF910895A2E0B0E0BA
:10211000ECE8F0E10C94CC29182FF62E0E94EF0F7A
:10212000082F811106C000E0802F2296E5E00C9474
:10213000E829103511F01092550210681983FA82BF
:1021400062E070E0CE0101960E943029892B59F798
:102150008AEB8A95F1F700C00E94602983E492E03F
:102160000197F1F700C00000DFCF64E670E00E9445
:102170008A29615071096837710510F067E770E0CE
:102180008FE00E9486100895CF93C82F0E94EF0F12
:102190008823C9F08C2F0E9400298FE792E00197D5
:1021A000F1F700C000000E941829C82F95E09A9509
:1021B000F1F700000E94602985E68A95F1F700009A
:1021C0008C2FCF910895C0E0FBCFCF93DF93C7EA68
:1021D000D1E060E0CE010E940A2A2196C11584E078
:1021E000D807B9F7DF91CF9108951F93CF93DF936D
:1021F000122F8430E0F46830D0F44630C0F4C42F9D
:10220000D0E0CC0FDD1F9CE0699FC00DD11D1124D3
:1022100090E6899FC00DD11D1124632FCE018796B2
:102220000E940A2A612FCE0188960E940A2ADF9115
:10223000CF911F910895AF92BF92CF92DF92EF920C
:10224000FF921F93CF93DF9385E5C82E82E1D82EAE
:10225000D0E07601C0E014C0F50125913491412F02
:102260006C2F8D2F0E94F51082E0A80EB11C1F5F0D
:10227000163091F78CE0E80EF11CCF5FC83019F0F2
:10228000570110E0E9CFDF5F80E6C80ED11CD430E3
:1022900001F7DF91CF911F91FF90EF90DF90CF90EA
:1022A000BF90AF900895CF93C82F6FEF811163E275
:1022B00083E290E00E940A2A6FEFC11165E084E298
:1022C00090E00E940A2A6FEFC11164E085E290E07D
:1022D0000E940A2ACF91089580E00E94531160E085
:1022E00086E290E00E940A2A0E941B110E94E510DB
:1022F00081E00E94531108950F931F93CF93DF93B2
:10230000843030F5683020F5463010F5C42FD0E029
:10231000CC0FDD1F2CE0629FC00DD11D112430E6D3
:10232000839FC00DD11D1124CE0187960E94F629EE
:10233000082F10E0102F0027CE0188960E94F62962
:102340009801282BC901DF91CF911F910F9108951A
:1023500090E080E0F8CF462F843040F4783030F4BD
:10236000663020F4672F0E947C11089590E080E091
:102370000895CF92DF92FF920F931F93CF93DF9335
:102380006C01009156028091E401082BC7E0D0E077
:1023900010E0FC2EC8010C2E02C0959587950A947A
:1023A000E2F780FD0CC02197A0F7F12C8F2DDF9173
:1023B000CF911F910F91FF90DF90CF900895B601BC
:1023C0008C2F0E94AB110E94BC0D019761F3EECFE0
:1023D000CF93DF93EC010E94B911BE010E94AB11B3
:1023E0000E94BC0DDF91CF910895FC0183819481FF
:1023F000892B29F08081918189238F3F51F480E0DE
:102400000895843FE1F717C0883EA8F0813FB9F7EF
:1024100012C0808191810E94E81192959F70963040
:1024200099F358F4925F9F70923048F7803F19F00B
:1024300040F7883E20F781E008959A5FF4CF83E269
:1024400090E00E94F629833289F484E290E00E94B1
:10245000F629853059F485E290E00E94F62991E052
:10246000843009F090E0892F8170089580E0FCCFDE
:10247000A8E1B0E0EEE3F2E10C94CD294B8B5C8B4C
:102480006D8B7E8B8F8B988F8E01095F1F4F86E03F
:10249000F80111928A95E9F780915502811133C0B4
:1024A00060E080E50E94861081112AC086E0FE016E
:1024B0003796DE01119601900D928A95E1F786E03C
:1024C000FE013196DE011D9601900D928A95E1F78D
:1024D0008D8583FF3EC086E0FE017396DE01179670
:1024E00001900D928A95E1F72F81388549855A85AB
:1024F0006B857C8580E090E06896E4E00C94E929A7
:1025000081E0809355020E94EF0F882379F280E5E5
:102510000E940029FAEBFA95F1F700C066E070E03E
:10252000C8010E9448298F81877011F010925502CE
:102530000E94602989859A859195819591099A874C
:1025400089878B859C859195819591099C878B873F
:10255000ADCF898187FD03C010922E02BCCF2B81A5
:102560003C818D819E8140912E02411103C041E04A
:1025700040932E0220384FEF34078CF0203831057D
:1025800014F02FE730E08038EFEF9E0754F08038EA
:10259000910514F08FE790E02D8B8E8B9CCF20E877
:1025A000F2CF80E8F9CF0F931F93CF93DF930E9470
:1025B00080280E94EF0F882309F488C025ED2A9512
:1025C000F1F700000E94602985ED8A95F1F700007F
:1025D0006AE58AE30E948610882309F477C09FEF9A
:1025E000E0E7F2E09150E040F040E1F700C0000089
:1025F00082E00E94C41083E00E94C41084E00E9424
:10260000C41085E00E94C41086E00E94C4106DE1F1
:1026100083E10E948610882309F458C08FE39CE967
:102620000197F1F700C0000068E183E10E94861085
:102630000E94EF0F882309F449C082EE0E9400290E
:1026400090E59A95F1F7C7E5D2E005E512E1FE01C4
:1026500084910E940029F0E5FA95F1F721960C1774
:102660001D07A9F78FE193E00197F1F700C0000083
:102670008AE20E94C41060E080E10E9486100E94FD
:102680006029EFE3FCE93197F1F700C000006FE04B
:102690008FE00E9486108FE99FE00197F1F700C05C
:1026A000000060E080E10E94861060E081E10E940D
:1026B000861062E083E60E94861080E00E94C410CB
:1026C0008FE30E94C4108AE20E94C410DF91CF9170
:1026D0001F910F91089580913E029091E201892B04
:1026E000809386019091E301992391F0892B809347
:1026F000860120E088E891E0FC013191CF013111A1
:102700002F5FF1E08E389F07B9F721110E94490F22
:1027100048E050E06AED71E086E891E00E94712C9B
:10272000892BA9F088E0E6E8F1E0AAEDB1E001909C
:102730000D928A95E1F7E0913102F09132023097E3
:1027400031F00280F381E02D86E891E0099508954B
:10275000882321F00E944F0F0E946B130895882355
:1027600039F090913E02982B90933E020E946B1399
:102770000895A6E2B0E0EFEBF3E10C94C02940919C
:1027800028025091290260912A0270912B028091B7
:102790002C0290912D020E9438122093280230932F
:1027A000290240932A0250932B0260932C027093CB
:1027B0002D0286E0E8E2F2E0DE01179601900D922C
:1027C0008A95E1F760912A02162F1195198786E004
:1027D000FE013796DE011D9601900D928A95E1F774
:1027E00086E0FE013D96DE01119601900D928A95DC
:1027F000E1F786E0FE013196A8E2B2E001900D9289
:102800008A95E1F786E0E8E2F2E0DE015996019070
:102810000D928A95E1F700912C0230902D02E09103
:102820001302F0E0EE0FFF1FED59FE4F6081718142
:1028300090E080E00E94E62A25E33AEF4EE85CE370
:102840000E94B32B2B013C01612F110F770B880BDA
:10285000990B0E94E82A4B015C01C301B2010E945E
:10286000AB2A6B017C0160912B02062E000C770BCA
:10287000880B990B0E94E82A6F8F78A389A39AA3EB
:10288000C301B20190580E94202C2B013C01A701EA
:102890009601C501B4010E94B32B6BA37CA38DA349
:1028A0009EA3A30192016F8D78A189A19AA10E9494
:1028B000B32B9B01AC016BA17CA18DA19EA10E94B9
:1028C0003E2A0E94B02A162FA3019201C501B4012D
:1028D0000E94B32B4B015C012F8D38A149A15AA155
:1028E000C701B6010E94B32B9B01AC01C501B40125
:1028F0000E943F2A0E94B02A80911502882309F481
:1029000089C0212F012E000C330B37FF03C03195F6
:1029100021953109862F062E000C990B97FF03C0D5
:10292000919581959109821793070CF4D6C010E018
:1029300080911402E0910F02F09110021802E00D54
:10294000F11D1124F0931002E0930F0220910D026B
:1029500030910E02860220193109112430930E02A3
:1029600020930D02A0911202B0E0AA0FBB1FA95A3A
:10297000BE4FAC91BF010A2E02C0759567950A94AF
:10298000E2F7862FA9010A2E02C0559547950A94B1
:10299000E2F7142F6623E9F0062E000C770B630D87
:1029A000711D37FC7A95603871050CF498C08FE77B
:1029B0008319380E082E000C990B0A2E02C0880FBE
:1029C000991F0A94E2F7E81BF90BF0931002E093C9
:1029D0000F0260E01123F1F0842F440F990B800F58
:1029E000911D07FD9A95803891050CF47EC01FE774
:1029F000101B010F812F110F990B02C0880F991F17
:102A0000AA95E2F7281B390B30930E0220930D0292
:102A100060E010E01B8F6C8F0D8F3E8E86E0FE0114
:102A20007996DE01179601900D928A95E1F786E07E
:102A3000FE013796DE01119601900D928A95E1F71D
:102A400086E0FE013196DE01539601900D928A9543
:102A5000E1F786E0FE017396DE01179601900D9274
:102A60008A95E1F786E0FE013796A8E2B2E0019090
:102A70000D928A95E1F786E0ECE1F2E0DE0117962F
:102A800001900D928A95E1F7809129029885892B12
:102A90008093290246E050E062E272E088E292E030
:102AA0000E94712C892B21F088E292E00E94470C51
:102AB00010922A0210922B0210922C0210922D02D8
:102AC00086E0E8E2F2E0A2E2B2E001900D928A959F
:102AD000E1F7A696E1E10C94DC2960E029CF6138AA
:102AE0007F4F0CF066CF81E863CF81389F4F0CF0A9
:102AF00080CF11E87DCFE1E1F2E083E0808384E0E4
:102B0000818382E0828381E08383148240815181CA
:102B1000628173818FE090E00E941C2A40E050E0C7
:102B2000BA0183E190E00E941C2A089568EE7EEFCE
:102B300090E080E00E94282A60E082E090E00E941D
:102B40000A2A60E083E090E00E940A2A1092E401E1
:102B500060E084E090E00E940A2A64E082E290E073
:102B60000E940A2A60E085E090E00E940A2A60E064
:102B700086E090E00E940A2A6FEF87E090E00E94D2
:102B80000A2A40E050E0BA0188E090E00E941C2A46
:102B900060E08DE090E00E940A2A40E050E0BA0137
:102BA00088E190E00E941C2A60E087E190E00E94AA
:102BB0000A2A40E050E0BA018CE190E00E941C2A11
:102BC00070E060E080E290E00E94282A40E050E05F
:102BD000BA0188E190E00E941C2A80E00E94531113
:102BE0000E946C110E947B1508951F920F920FB6E0
:102BF0000F9211242F933F934F935F936F937F9383
:102C00008F939F93AF93BF93EF93FF938091E100D6
:102C100082FF09C08091E20082FF05C08091E1003F
:102C20008B7F8093E1008091DA0080FF24C0809147
:102C3000D80080FF20C08091DA008E7F8093DA0078
:102C40008091D90080FF9DC080E189BD82E189BD6E
:102C500009B400FEFDCF81E080934B0280913D02DC
:102C6000811109C00E94590A0E94240B8091E20040
:102C700084608093E2008091E10080FF17C0809122
:102C8000E20080FF13C08091E2008E7F8093E2001B
:102C90008091E20080618093E2008091D8008062A0
:102CA0008093D80019BC85E080934B028091E100AD
:102CB00084FF2BC08091E20084FF27C080E189BDA2
:102CC00082E189BD89B5982F917080FFFBCF8091FB
:102CD000D8008F7D8093D8008091E1008F7E809313
:102CE000E1008091E2008F7E8093E2008091E2001B
:102CF00081608093E20080914C02882309F447C0F0
:102D000084E080934B0280914B028091E10083FF2D
:102D100027C08091E20083FF23C08091E100877F7C
:102D20008093E10082E080934B0210924C028091EC
:102D3000E1008E7F8093E1008091E2008E7F80939E
:102D4000E2008091E20080618093E20042E060E076
:102D500080E00E94F20A8091F00088608093F00089
:102D6000FF91EF91BF91AF919F918F917F916F9163
:102D70005F914F913F912F910F900FBE0F901F9039
:102D8000189519BC10924B0210923D0274CF80919D
:102D9000E30087FD93E090934B02B5CF78941F92A8
:102DA0001FB61F9211248F939F93AF93BF9380916F
:102DB000360290913702A0913802B0913902019603
:102DC000A11DB11D8093360290933702A093380263
:102DD000B0933902BF91AF919F918F911F901FBE09
:102DE0001F9018952FB7F894809136029091370272
:102DF000A0913802B09139022FBF08950E94F216B7
:102E00009C0190911E0280911F02982B21F030931B
:102E10000C0220930B029091200280912102982BAA
:102E200021F030930A02209309028CE192E00E9483
:102E3000470C089590E080E00E94310C90E080E023
:102E40000E941B0C1092E2010E946B1386E0ECE1E1
:102E5000F2E0DF011D928A95E9F7109207021092C5
:102E60000602109208020E94FE1608950E94DC0FCE
:102E7000809356020E941A17089580915602982F47
:102E80009670963021F488600E9436170895877FE7
:102E9000FBCF21E030E001C0220F8A95EAF72095B0
:102EA0008091560282230E94361708959091D9018D
:102EB000809589238093D901282F277091F4282F9A
:102EC000082E000C330B9217130659F09091F10164
:102ED00092FF07C08595859585950E9449171092A8
:102EE000D9010895CF93C091F101C2FB992790F9C0
:102EF000981791F080FBC2F9C093F1016091F00145
:102F000084E090E00E940A2A6C2F82E290E00E9406
:102F10000A2A82E00E945617CF91089521E030E0FE
:102F200001C0220F8A95EAF780915602822B0E94F7
:102F3000361708958093E4010E941A170895E8E86F
:102F4000F1E086E0DF011D928A95E9F70E941A17E9
:102F50000895AAE2B0E0EFEAF7E10C94CE298DE4FF
:102F600092E02091F100DC012D93CD01B2E0853596
:102F70009B07B9F780914E02833009F472C0B8F410
:102F8000813009F449C0823009F4B5C08091E8006D
:102F900083FF8DC280914D0290914E029A3008F0CD
:102FA00086C2E92FF0E0E058F34D0C94B2298A3044
:102FB00009F490C08B3009F471C0893039F78091E1
:102FC0004D02813219F7809151029091520200977F
:102FD00011F00297D9F68091E800877F8093E8008E
:102FE0008091E80082FF38C09091F3008091F20058
:102FF000029731F48091F100813011F0863021F494
:103000008091F100809340028091E8008B7780935B
:10301000E8000E94D30ABACF80914D02813A09F0AC
:10302000B5CF8091E800877F8093E80080915102BE
:1030300090915202892B61F468E081E492E070E0A3
:103040000E947F0B8091E8008B778093E8009ECFF1
:1030500060E090E080E0F3CF80914B028111C0CF1F
:1030600095CF80914D02813A09F090CF8091510225
:1030700090915202892B09F089CF8091E800877FD7
:103080008093E8008091E80080FFFCCF80910C01E4
:103090008093F1008091E8008E77B9CF80914D0246
:1030A000813209F073CF8091510290915202892BA5
:1030B00009F06CCF8091E800877F8093E8000E9440
:1030C000D30A80914F0280930C0110923E020E941D
:1030D0009F175CCF80914D02813209F057CF8091CC
:1030E000E800877F8093E8000E94D30A8091500215
:1030F00080933F024BCF80914D02813A09F046CF39
:103100008091E800877F8093E8008091E80080FF4D
:10311000FCCF80913F02BCCF803899F0823809F013
:10312000C6C1809151028F70873008F0C0C1809372
:10313000E9008091EB0085FB882780F91092E90077
:1031400006C08091490290914A029111826090914B
:10315000E800977F9093E8008093F1001092F100CF
:103160008091E8008E779FC1882309F48DC1823059
:1031700009F09DC180914F02811190C1809151024F
:103180008F702FEF280F263008F091C18093E9004F
:103190002091EB0020FF82C1933031F48091EB004D
:1031A00080628093EB007AC19091EB0090619093E4
:1031B000EB0021E030E001C0220F8A95EAF720936E
:1031C000EA001092EA008091EB008860EACF81115A
:1031D0006EC110914F021F778091E3008078812BA0
:1031E0008093E3008091E800877F8093E8000E944D
:1031F000D30A8091E80080FFFCCF8091E3008068D3
:103200008093E30082E0111183E080934B024FC171
:103210008058823008F04BC120914F02309150020B
:103220002C3DE3E03E07A1F583E08A838AE28983AF
:103230004FB7F894DE01139620E03EE051E2E32F11
:10324000F0E050935700E49120FF03C0E295EF7047
:103250003F5FEF708E2F90E0EA30C0F0C7968D93FD
:103260009D932F5F243159F74FBF8091E800877FEE
:103270008093E8006AE270E0CE0101960E947F0B25
:103280008091E8008B778093E80011C1C096E7CF6A
:103290008091510290915202432F5527433051059E
:1032A00009F44AC078F54130510509F47AC08BE53C
:1032B00090E0E5EDF3E14230510509F0F8C02091CE
:1032C000E800277F2093E8002091530230915402B8
:1032D0008217930708F49C0140E02115310509F09D
:1032E00065C0411163C08091E80082FDC9CF809123
:1032F0004B02882329F2853019F28091E80083FF80
:10330000F2CFBECF4132510509F43CC042325105E3
:1033100009F0CDC08330910508F0C9C0FC01EE0F63
:10332000FF1FE858FE4F0190F081E02D8B589E4F13
:10333000DC018C9190E01AC0332721303105D1F0A7
:103340002115310561F02230310509F0B0C0E2E409
:10335000F4E1E4918E2F90E0E2E4F4E107C0E0E7CD
:10336000F4E1E4918E2F90E0E0E7F4E1009709F4B6
:103370009EC0A5CFE2E5F4E1E4918E2F90E0E2E576
:10338000F4E1F4CF8330910508F091C0880F991FC4
:10339000FC01E258FE4F0190F081E02D89E090E0C1
:1033A0008ECF82E190E0E0E3F4E189CF80914B029F
:1033B000882309F465CF853009F462CF8091E80055
:1033C00083FD5ECF8091E80082FD8DCF8091E80083
:1033D00080FF83CF9091F3008091F2002115310599
:1033E00019F08830910550F041E0089709F040E06D
:1033F0008091E8008E778093E8006FCF44914093EE
:10340000F1003196215031090196E8CF803809F05A
:103410004EC08091E800877F8093E80080914C0245
:103420008093F1009DCE811142C010914F02123065
:10343000F0F58091E800877F8093E80010934C02BC
:103440000E94D30A112311F084E005C08091E300AB
:1034500087FDFACF81E080934B0242E061EC81E08E
:103460000E94F20A42E261EC84E00E94F20A42E227
:1034700061EC82E00E94F20A42E260EC83E00E948A
:10348000F20A80914B0213C080914F02813079F48F
:1034900081E0933009F080E080934A021092E900C5
:1034A0008091E800877F8093E8000E94D30A809192
:1034B000E80083FF0AC08091E800877F8093E800DE
:1034C0008091EB0080628093EB00AA96E3E00C947D
:1034D000EA291F920F920FB60F9211242F933F9358
:1034E0004F935F936F937F938F939F93AF93BF930C
:1034F000CF93DF93EF93FF93D091E900DF7080913A
:10350000EC00C82FC17080FDC0E81092E9008091E6
:10351000F000877F8093F00078940E94A9171092A2
:10352000E9008091F00088608093F000CD2BCF708F
:10353000C093E900FF91EF91DF91CF91BF91AF91DF
:103540009F918F917F916F915F914F913F912F91BB
:103550000F900FBE0F901F90189510923E020E9480
:103560009F172FEF84E39CE0215080409040E1F7CB
:1035700000C0000088E19AE00FB6F894A895809307
:1035800060000FBE90936000FFCF8823C9F19CEFCD
:10359000980F913A78F4E8E8F1E09191891303C02B
:1035A000DF0111971C9291E0EE38F907B1F70E9404
:1035B0006B13089590E2980F983050F4877091E063
:1035C00001C0990F8A95EAF7892F0E944F0FEFCF1C
:1035D0009BE5980F933028F490E080E00E94310C36
:1035E000089598E5980F973128F490E080E00E94C4
:1035F0001B0C0895803F20F00E94620C0E94FE1672
:103600000895CF93C82F8823B1F08CEF8C0F813AA7
:1036100000F5E8E8F1E08EE891E0DF012D91C217B6
:1036200061F08A179B07D1F76C2F86E891E00E9422
:10363000010C0E946B13CF9108952191C21303C016
:10364000DF0111971C928E179F07B9F70E946B1329
:10365000EBCF80E28C0F883068F4C77021E030E057
:1036600001C0220FCA95EAF780913E02822B809317
:103670003E02DFCFEBE5EC0FE33040F4F0E0E25F39
:10368000FE4F808190E00E94310CD5CFE8E5EC0F31
:10369000E73150F4F0E0EE0FFF1FEF5EFE4F808148
:1036A00091810E941B0CC7CFC03F28F28C2F0E9433
:1036B0001D0D0E94FE16BFCF1F93CF93DF93182FCF
:1036C000EB010E94011B209739F4812F0E94C51A3B
:1036D000DF91CF911F9108958FE99FE00197F1F756
:1036E00000C000002197EFCFA2E1B0E0EAE7FBE1E4
:1036F0000C94C0298C01FC0183819481892B31F0C9
:103700008081918189238F3F09F0E9C46296E1E1CC
:103710000C94DC290E94B911F82E682F89819A81B6
:103720000E94940F69817A818F2D0E94AB117C01D8
:10373000F8018281882309F4C4C4970122513F45CE
:103740002031310508F02FC48FEF93E00E94F62955
:10375000811128C0FEEEEF0E67EA862E992493941D
:10376000E11032C01C821B82442443945AE0352E5F
:1037700074018FEFE81AF80AC4010E94F6298983C0
:103780001A82882379F09FEF980F933058F58A8337
:10379000498292E0890E911CC7010E94F6298B8311
:1037A000811121C08091D901877009F4AFCFF80150
:1037B0008281882309F4AACF8091F10182FFA6CFEC
:1037C00082E00E945617A2CF811424E0920651F3A2
:1037D000C4010E94F629811101C0EA943FEF831AC7
:1037E000930ABECF4701FE0131967F01F701208188
:1037F000222309F4BDCF213009F04DC0918182818F
:10380000913061F4F2E0EF0EF11C70E060E089337A
:1038100011F460E570E00E945C1B07C0923049F42F
:1038200022E0E20EF11C0E94011B8FEFE81AF80A59
:10383000DDCF933031F432E0E30EF11C0E94C51A63
:10384000F4CF943021F08FEFE81AF80AEECF92E02F
:10385000E90EF11C30E020E0B7016F5F7F4FF70108
:1038600041818053990B8A30910550F021503109E4
:10387000E0F28FE99FE00197F1F700C00000F6CF7A
:10388000329EF001339EF00D11249C012E0F3F1F3C
:10389000842F7B01E1CFE22FF0E0E952FE4F5490FC
:1038A000822F86958695869590E0FC01E953FE4F20
:1038B00064902770712C022E02C0759467940A944C
:1038C000E2F7E1E06E227724FC01E954FE4FA49078
:1038D000B12C022E02C0B594A7940A94E2F7F1E04D
:1038E000AF22BB24FC01E955FE4FC490D12C02C08D
:1038F000D594C7942A95E2F721E0C222DD24611411
:10390000710419F081EE0E94011BA114B10419F099
:1039100086EE0E94011B39E370E060E0531202C0A2
:1039200060E570E0852D0E945C1BA114B10419F0C4
:1039300086EE0E94C51A6114710419F081EE0E948E
:10394000C51AC114D10409F470CF70E060E08CE2B4
:1039500062CF81E00E948E170E943D1723CF81E045
:103960000E944917F9CF82E0F5CFE3EBEE16EDE5C3
:10397000FE0609F440C0F4EBEF16FDE5FF0609F47E
:1039800054C0E5EBEE16EDE5FE0609F472C098EBC7
:10399000E9169DE5F90609F03BC3882389F080917B
:1039A00014028195809314024091110250911202E9
:1039B00060911302709114028FE090E00E941C2A23
:1039C000F8018281882309F434C3FAE5EF16FDE596
:1039D000FF0609F4BDC008F094C0E1143CE5F3060D
:1039E00009F49DC08EEDE8168CE5F80609F021C3B8
:1039F0000E94961592C0882309F40AC3809112028E
:103A000090E0019666E070E00E948A29809312029D
:103A100040911102509112026091130270911402B0
:103A20008FE090E00E941C2AF3C28823B1F08091BD
:103A3000130290E0019669E070E00E948A29809369
:103A40001302409111025091120260911302709181
:103A500014028FE090E00E941C2A26EBE2162DE56E
:103A6000F206F9F48091150291E0892780931502FE
:103A7000A7CF8823B1F08091130290E0089669E007
:103A800070E00E948A2980931302409111025091A4
:103A9000120260911302709114028FE090E00E9474
:103AA0001C2AF6E1EF16FCE5FF0609F089CFF801C4
:103AB0008281882391F080913E028A7A91E009F414
:103AC00090E090938E0169E2811165E386E891E0D0
:103AD0000E94010C0E946B1365CE80918E018111B2
:103AE0000EC089E2E8E8F1E09191891303C0DF019B
:103AF00011971C9221E0EE38F207B1F7EBCF85E386
:103B0000F1CF9CE5E9169DE5F906C1F018F1F7EA59
:103B1000EF16FDE5FF0609F08CC20E94AD1A109267
:103B20003E020E949F172FEF34E38CE0215030407B
:103B30008040E1F700C000000E94E10B8091F1019C
:103B400082FB882780F991E089270E94721771C251
:103B500081E0FBCF80E0F9CFC7010E94600FD82E33
:103B600077C22F2D2F70C22E8F2D807F19F0C29417
:103B700090EFC922DD20B9F0CC2069F080E28E0DF3
:103B8000883010F0811009C080913E02C82AC0928E
:103B90003E020E946B138E2D4CC08091E201C82A18
:103BA000C092E201F6CF8E2D0E94C51ACC2009F4F6
:103BB00042C080E28E0D883010F0811004C08C2D40
:103BC0000E944F0F06C0C0948091E201C822C092AB
:103BD000E2010E946B132FC03F2D3F70C32E8F2D2B
:103BE000807F803219F0C29480EFC822882089F04B
:103BF00081E0881609F467C0DD2009F471C0BB209C
:103C000009F467C0F801858180FFC5CF8F70858377
:103C100060C02091F10122FD34C0DD2061F1CC2093
:103C200039F080913E02C82AC0923E020E946B1376
:103C300080E00E94011BE92DE850FF0B349710F43F
:103C40000E94550CAA2009F461CD8091D90180FD14
:103C50005DCDF80112828595859585950E948E1718
:103C6000C8010E94741B8091D90185958595859521
:103C70000E9449174BCD80E00E94C51ACC20D9F292
:103C80009ECFDD2099F09091E3018C2D892BB1100E
:103C900003C00E94AF13CFCFE1E0BE12FACF22FFE4
:103CA000CACF981741F28093E301C5CFB11006C087
:103CB0000E94490F8C2D0E94A813BDCFF1E0BF16C2
:103CC00009F4B9CFF5CFDD2031F025E02B1508F44C
:103CD000B2CF8C2DDECF34E03B1508F4ACCFEACF69
:103CE000BB2041F3F9E38F1257C12FEF37EE83E08A
:103CF000215030408040E1F700C000004DC18F2DC1
:103D000086958695837061F0813009F094CFC70164
:103D10009370D11002C090E080E00E941B0C8BCF0A
:103D2000C7019370D11002C090E080E00E94310C76
:103D300082CF8E2DDD20C1F10E941D0DEE2DE45F9E
:103D4000FF0BE530F105B0F581E090E001C0880F90
:103D5000EA95EAF726E0E8E2F2E0DE011796019044
:103D60000D922A95E1F726E0FE013796DE011D96B9
:103D700001900D922A95E1F72885DD20C1F0822B74
:103D80008E8786E0FE013D96DE01119601900D9230
:103D90008A95E1F786E0FE013196A8E2B2E0019053
:103DA0000D928A95E1F747CF0E94620CC7CF8095AC
:103DB0008223E6CF0E94FE163ECF8F2D837091F5B1
:103DC000D11039CF4E2D429546954770440F440F80
:103DD0008E2D8F70042E01C0880F0A94EAF72E2DC5
:103DE0002071E4FE07C02FE030E001C0220F4A95A9
:103DF000EAF720953F2D369536953370323069F0CD
:103E000050F44091E401313029F0822B84230E9448
:103E10009A1711CF842B822BFACF282B8091E401A3
:103E20008227F5CF8695DD2011F08F2D81708823B4
:103E300009F401CF4E2D429546954770440F440F2B
:103E40008E2D8F70042E01C0880F0A94EAF72E2D54
:103E50002071E4FE07C02FE030E001C0220F4A9538
:103E6000EAF720953F2D369536953370323069F05C
:103E700050F440915602313029F0822B84230E9465
:103E80003617D9CE842B822BFACF282B809156025D
:103E90008227F5CFFF2DFF70FF2EDD2029F08F2F19
:103EA0000E948E178E2DF5CE8E2D0E94A8138F2D79
:103EB0000E944917C0CE8E2D22EF8216B1F128152F
:103EC00070F030EF8316D1F091EF891691F0DD207C
:103ED00009F45DC0B1105FCE8F2D8F712AC0E3EF62
:103EE0008E1651F1F4EF8F12F2CF8091F10182FD25
:103EF0002FC08F2D8F71DD20D9F21BC0DD2081F006
:103F000024E02B1508F497CE2F2D2F7181E090E03F
:103F100001C0880F2A95EAF7909156028927AFCF02
:103F200035E03B1508F487CEEFCF8F2D8F71D11080
:103F3000BFCF0E948E177FCE80E0DD2009F49FCF97
:103F40009F2D9F7181E001C0880F9A95EAF797CF66
:103F5000DD2091F08F2D8F71F82E0E948E178091A9
:103F6000F10182FF07C0E8E0FE9EC00111248360DA
:103F70008093D9018F2DDDCF81E00E945617F1E0AB
:103F8000FB1508F058CE82E00E94561754CEBB2095
:103F900039F0893309F4A9CE8E2D0E94C51A4BCE73
:103FA0008F2D8F7185CFF0E1EF16FFE5FF0609F445
:103FB000D0CC21E1E2162FE5F20609F4D4CC92EB45
:103FC000E9169DE5F90609F0D0CC882309F1809126
:103FD000110290E0019665E070E00E948A298093CA
:103FE00011024091110250911202609113027091DE
:103FF00014028FE090E00E941C2AE0911102F0E090
:10400000EE0FFF1FE35BFE4F808191810E94B51090
:1040100037EBE3163DE5F30609F01FCDF801828189
:10402000882309F4CDCC8091150291E089278093F3
:104030001502F8018281E080F180882309F48CCD9B
:10404000C7010E94B911D82E682FC7010E94940F92
:10405000B7018D2D0E94AB110E94BC0D7C01882EF2
:10406000F801D280B580B2943FE0B3228091D901AB
:104070008770C1F0AD2CDD20B1F08F2D807F8034B2
:1040800021F080E28E0D883068F08091F10182FF8E
:1040900009C082E00E9456178091D9018770AA2436
:1040A000A3948111A12C9F2C92942FE09222FBE0EB
:1040B000F91508F4C0CDE92DF0E0E657F34D0C9466
:1040C000B22930E1E3163FE5F30609F448CC91E16B
:1040D000E9169FE5F90609F072CF82E041CC85E050
:1040E000DE01119601900D928A95E1F7F801228187
:1040F00089819A8121110ECB0E94600FF82E12CB7C
:104100001F93CF93DF938091A601807F09F049C070
:104110008091A301882309F444C08091D801D091F3
:10412000A7016091A1017091A201A091A401B09199
:10413000A501C62FC72316E0D81799F190E0109774
:1041400011F0CF3F19F401968770F6CF189F9001B8
:10415000199F300D1124F901E855FE4F4181471395
:10416000F2CF40814613EFCF42814111ECCF438122
:1041700054814A1B5B0B483C510528F78091A601EE
:104180008F7080618093A601F901E355FE4F808115
:104190008F708061808381EA91E00E94741B0E948D
:1041A000560FDF91CF911F910895A1E1B0E0EBEDA3
:1041B000F0E20C94C7298C0185E0F801DE011D9620
:1041C00001900D928A95E1F7F801E28081EAA82E2C
:1041D00081E0B82E6091A4017091A501611571056F
:1041E00009F416C19091A1014091A201892F842365
:1041F0008F3F09F40DC120813181C380D480F090BC
:10420000A301F601E61BF70BFF2009F4E8C080913B
:10421000A601582F507FE83CF10508F0ABC05111C2
:104220006BC0FE2C431314C0921312C0E11010C0D7
:104230008F7080618093A601C5010E94741B8091DC
:10424000A601F80185838F2D6196EAE00C94E3299D
:10425000C114D10429F0822F83238F3F09F0F3C0CA
:1042600080E0F82FF170DF2E80FF3CC08091D801F4
:104270004091A70156E0841315C02D873E878D8598
:104280009E850E94E811292F22952F702230F0F090
:10429000243018F59F70F1F0F8019581907FD1F4EA
:1042A000D12C1EC090E0589FF001599FF00D1124B1
:1042B000E855FE4F6181361306C06081261303C0A6
:1042C0006281E6120FC001968770D5CF9F7011F002
:1042D000882331F3805E883018F3C8010E94741B74
:1042E000FD2CB1CFEE2009F4AECF8091A601816004
:1042F0008093A601F12CA7CF431312C0921310C0D4
:10430000E1100EC0F8018583C8010E94741B86E08D
:10431000F801A1EAB1E001900D928A95E1F793CFFF
:10432000C8010E94F511882309F1EE20F9F080916F
:10433000A601803270F02091A1013091A20138874E
:104340002F831986DB86CA868C87CE0107960E944A
:10435000741B86E0F801A1EAB1E001900D928A9504
:10436000E1F70E948020FF24F3946DCFC8010E94E2
:10437000741BF9CF51110AC081EA91E00E94741BAD
:1043800086E0F50111928A95E9F7B4CF43130FC087
:1043900092130DC0E1100BC0F8018583C8010E9483
:1043A000741B86E0F50111928A95E9F74CCFC8019C
:1043B0000E94F5118823D1F2EE20C1F28091A6016E
:1043C000803238F22091A1013091A2013A832983F1
:1043D0001B82DD82CC828E83CE010196B8CFE83C71
:1043E000F105F8F6FE2CEE2009F2431303C09217F4
:1043F00009F48DCFC8010E94F5118111AACF8091D7
:10440000A60181608093A601C8010E94741B1BCF86
:10441000EE2009F4ABCFC8010E94F511F82E8823D5
:1044200009F4A4CF86E0F801A1EAB1E001900D9271
:104430008A95E1F78091A1019091A2010E94E81173
:104440000E94802000CF81E08E250BCFA7E1B0E055
:10445000ECE2F2E20C94CE294B8B5C8B6D8B7E8B65
:104460008F8B61111092E2011A8A198A85E0FE0190
:104470007396DE011D9601900D928A95E1F786E014
:10448000FE013D96DE01179601900D928A95E1F7A7
:10449000CE0107960E94D520882359F016E080911E
:1044A000D8019091A701891345C06796E3E00C9469
:1044B000EA2986E0FE013796DE01119601900D9201
:1044C0008A95E1F78A859B85892B41F38F819885B1
:1044D00089238F3F19F32091A70130E0C90101968C
:1044E000877099274091D8014817190681F41092D6
:1044F0003E020E949F171092A7011092D80186E0F9
:10450000E1EAF1E0DF011D928A95E9F7C7CF96E075
:10451000929FD001939FB00D1124A855BE4FFE016C
:10452000319601900D929A95E1F78093A7010E9430
:10453000560FB4CF819FC001112488559E4F0E9411
:10454000D520882309F4B1CF8091D80190E001965D
:10455000877099278093D801A2CF2F923F925F92C4
:104560006F927F928F929F92AF92BF92CF92DF9283
:10457000EF92FF920F931F93CF93DF93A8EEB1E0DA
:104580002CEEA22E21E0B22E0FE311E0912CEE24AE
:10459000E394F12C7C901D92E80189918E01E82F23
:1045A000E295EF70F0E091A18F70B70101C0660F46
:1045B0008A95EAF7892F862B81A382A1862E809483
:1045C000882182A3D0EADA95F1F797E4292E91E0C9
:1045D000392E610130E020E0AD0141505109E60182
:1045E00059906E01852D82958F7090E0EC0188A125
:1045F000EA01688090E0D52DDF7002C0959587951F
:10460000DA95E2F780FDB4C08E2D022E01C0880F2E
:104610000A94EAF78629EA0188832F5F3F4F263004
:104620003105E9F681A1882281A282A1682B62A3CB
:1046300081E09881971101C080E0982AAA16BB06F4
:1046400009F0A8CF30E020E041E050E063E471E001
:10465000F10181911F01E82FE295EF70F0E0A1A137
:104660008F70EA0102C0CC0FDD1F8A95E2F7CE0100
:104670009A2F982B91A392A18095892382A3D0EAA7
:10468000DA95F1F7CA01022E01C0880F0A94EAF701
:10469000882EB82FB095ECEEF1E00FE311E0D12CAD
:1046A0007F01C080E801A9918E01AA2EA2948FE01B
:1046B000A822B12CE50188A190E0AF7002C09595C9
:1046C0008795AA95E2F780FD55C0882D8C298083B7
:1046D0003196E7018881C81611F0DD24D394601764
:1046E0007107F1F6F10131978081E82FE295EF70C3
:1046F000F0E011A18F70DA0101C0AA0F8A95EAF7E4
:104700009A2F9095912391A382A18A2B82A39D2811
:104710002F5F3F4F2630310509F09ACF992069F17C
:1047200081E08093E7010E94F2169093E601809366
:10473000E5018091E5019091E6010E94F20B059759
:1047400000F148E050E068EE71E08EEF91E00E94E9
:10475000712C892B49F188E0E8EEF1E0AEEFB1E091
:1047600001900D928A95E1F781E01092E7010AC06D
:1047700080E050CF8B2F8C21AACF8091E70181114F
:10478000D8CF80E0DF91CF911F910F91FF90EF90F4
:10479000DF90CF90BF90AF909F908F907F906F9061
:1047A0005F903F902F90089580E0DFCF1F921FB65B
:1047B0001F9211248F939F93AF93BF9380913502E3
:1047C000811113C08091360290913702A091380276
:1047D000B09139024196A11DB11D8093360290938C
:1047E0003702A0933802B0933902BF91AF919F91E5
:1047F0008F911F901FBE1F901895CDB7DEB7AA9757
:104800000FB6F894DEBF0FBECDBF85B7806885BFF9
:1048100085B7806885BF84B7877F84BF0FB6F8945B
:10482000A89580916000886180936000109260007C
:104830000FBE80E890E00FB6F894809361009093EB
:1048400061000FBE87E79DE090938501809384010E
:104850000E94590A0E94240B8091E2008460809398
:10486000E200789480914B028823A1F01091E90036
:104870001F709091EC00892F817090FD80E8182BBB
:104880001092E9008091E80083FD0E94A9171F7033
:104890001093E90082E084BD93E095BD9AEF97BD47
:1048A00080936E000E941F12811102C00E946C1141
:1048B000AFE3B1E027E431E0AD0161E070E0FA017F
:1048C0008191AF01E82FE295EF70F0E0F1A08F70D9
:1048D0008B0101C0000F8A95EAF7902F90959F21D8
:1048E00091A382A1802B82A32417350741F747E4C7
:1048F00051E06DE471E08A01EE24E394F12CF801BB
:1049000081918F01E82FE295EF70F0E0B1A08F70F8
:10491000670101C0CC0C8A95EAF79C2D90959B21EC
:1049200091A382A18C2982A3F1E00D341F0739F7EE
:1049300001E010E0FA018191AF01E82FE295EF70FC
:10494000F0E0D1A08F70780101C0EE0C8A95EAF7F3
:104950009E2D90959D2191A382A18E2982A36417FB
:10496000750741F761E070E08D91E82FE295EF70F7
:10497000F0E011A18F70AB0101C0440F8A95EAF7F6
:10498000942F9095912391A382A1842B82A32A171F
:104990003B0751F7E8EEF1E0AEEFB1E011921D9266
:1049A00021E0E03FF207D1F78FE090E00E94FE297E
:1049B0006093110270931202809313029093140279
:1049C000663010F00E947B1590E080E00E94042A7F
:1049D000883E9E4F21F40E941F12811102C00E9446
:1049E000961582E090E00E94F6298093F40184E01D
:1049F00090E00E94F629182F82E290E00E94F629AA
:104A0000982F812F9093F1018093F0010E94AD22A5
:104A10008FE39CE90197F1F700C000000E94AD22EE
:104A20008091FE0180FF08C06FEF7FEF90E080E093
:104A30000E94282A0E94E10B83E090E00E94F62960
:104A40000E949A17809156020E94DC0F0E94D31296
:104A5000E0911102F0E0EE0FFF1FE35BFE4F80815B
:104A600091810E94B51080E091E090933202809392
:104A7000310238E1632E712C40E4542E56E0E52ECD
:104A800052E0F52E6DEFC62E61E0D62E80914B02DE
:104A900000E112E1853009F484C00E94AD2295EF57
:104AA000A92E91E0B92EAEEFB1E0F50191918D9173
:104AB000CE16DF0609F481C09817C1F30EEF11E09E
:104AC000912CF80181908F01F50121905F0128144C
:104AD00019F12824412C33243394822D8321A1F011
:104AE0004EA29FA291E0882D832109F490E098A71F
:104AF0000E94F2168160782F9AA789A74EA15FA124
:104B000068A58AA50E9426224394330CF6E04F1232
:104B1000E4CFF50131978082939428E09212D1CFAF
:104B20008FB7F89440913602509137026091380265
:104B3000709139028FBF61C080914B02843019F1AE
:104B40000E94B913109235020FB6F894A89560929E
:104B500060000FBE5092600083B7817F846083BF86
:104B600083B7816083BF7894889583B78E7F83BF36
:104B70000FB6F894A89580916000886180936000DA
:104B8000109260000FBE80914A02882351F00E946B
:104B9000AD22EEEFF1E08191811187C2EE16FF06A2
:104BA000D1F780914B02853009F4C6CF10923E02B6
:104BB0000E949F170E94550C70CF98137FCF0E94C0
:104BC000F2168C018091F2019091F30108171907F8
:104BD000A1F08FEF89A38AA31BA20E94F216816025
:104BE000782F9DA38CA349A15AA16BA18DA10E94EE
:104BF00026221093F3010093F20186E0ECE1F2E04B
:104C0000DE01119601900D928A95E1F710921E0235
:104C100010921F0210922002109221021B810C811F
:104C2000812F802B09F448C080910B0290910C02D7
:104C30000E94F20B9C0190910702992309F45BC238
:104C400025313105C8F19F3F19F09F5F909307020E
:104C5000112359F00E94FD0C9FEF11160CF491E006
:104C6000899F802D112480931E02002359F00E94F9
:104C7000FD0C9FEF10160CF491E0899F802D1124FC
:104C800080931F0230911E023323B1F020911F0246
:104C9000222391F045EB3403C0011124992309F438
:104CA000B8C090931E0245EB2403900111243323D6
:104CB00009F4B3C030931F021D810E81812F802B18
:104CC00009F448C08091090290910A020E94F20BF7
:104CD0009C0190910602992309F408C221353105FF
:104CE000C8F19F3F19F09F5F90930602112359F07E
:104CF0000E94DB0C9FEF11160CF491E0899F802D30
:104D0000112480932002002359F00E94DB0C9FEFB6
:104D100010160CF491E0899F802D112480932102BC
:104D2000309120023323B1F020912102222391F00F
:104D300045EB3403C0011124992309F472C0909308
:104D4000200245EB240390011124332309F46DC0A4
:104D50003093210246E050E0BE016F5F7F4F8CE14F
:104D600092E00E94712C892B61F480911E02909137
:104D70001F02892B90912002892B90912102892B6F
:104D800011F00E94FE1686E0FE013196ACE1B2E021
:104D900001900D928A95E1F70E94B9130E94550C7B
:104DA0009091FD01891769F08093FD018FB7F89408
:104DB0004091360250913702609138027091390269
:104DC0008FBF80914B02843009F060CE83E08093E6
:104DD000E9008091E80082FF59CE8091E80090E0E0
:104DE00085FF05C00E94780A882319F191E080911F
:104DF000E8008B778093E800992309F447CEE98196
:104E0000E150E33108F09FC0F0E0EA56F34D0C9416
:104E1000B22981E080931E0246CF81E080931F0279
:104E20004BCF81E0809320028CCF81E080932102E0
:104E300091CF80E2A82EB12C8E010F5F1F4F809181
:104E4000E80085FD0AC08091E8008B778093E80038
:104E50000E94780A882399F3C9CF8091F100F80164
:104E600081938F01F1E0AF1AB10849F7BFCF1A82E1
:104E70008AE08B831AC08A81823009F42EC1833084
:104E8000D9F1813009F05FC02FB7F89460913602F4
:104E90007091370280913802909139022FBF0E94A1
:104EA000B8296B837C838D839E8380914B028430F1
:104EB00009F0ECCD1091E9001F709091EC00892F62
:104EC000817090FD80E8182B82E08093E90080914A
:104ED000E80080FF0DC050E040E060E270E0CE01ED
:104EE00001960E94A90A8091E8008E778093E800DD
:104EF0001F701093E900CACD8091FE018B838091D1
:104F0000FF018C83809100028D83809101028E834A
:104F1000809102028F83809103028887809104022E
:104F20008987809105028A87C0CF8A81823059F4AF
:104F30006B817C818D819E810E94B82986E290E000
:104F40000E940A2AB2CF8FEF8983AFCF4C816B8149
:104F50008A810E947C119827892798279E838D83B8
:104F6000A4CF2D813E813227232732274C816B81AC
:104F70008A810E94F51099CF0E941B1196CF80E183
:104F80008A8393CF82E08A8389E573CF0A811B816C
:104F9000102701271027CE0101965C018C80FC01AF
:104FA000E80DF11D4F01C80189559E4FA814B904A1
:104FB00009F47BCF0935F2E01F0750F40E94F6296F
:104FC000F50184830F5F1F4FFFEFAF1ABF0AEBCFCE
:104FD000F5011482F7CF0A811B81102701271027C2
:104FE000CE0101964C01AC80A00EB12EB11CC801BF
:104FF00089559E4F0A151B0509F457CF0935E2E084
:105000001E0720F4F40164810E940A2AFFEF8F1A20
:105010009F0A0F5F1F4FEBCF0E94E51046CF84E041
:10502000AFCF0A811B81102701271027CE010196DF
:105030005C018C80FC01E80DF11D4F01C8018796D1
:10504000A814B90409F431CF0038F1E01F0750F477
:105050000E94F629F50184830F5F1F4FFFEFAF1AFF
:10506000BF0AECCFF5011482F7CF0A811B8110270C
:1050700001271027CE0101964C01AC80A00EB12E65
:10508000B11CC80187960A151B0509F40ECF00381C
:10509000E1E01E0720F4F40164810E940A2AFFEF78
:1050A0008F1A9F0A0F5F1F4FECCF09BD19BD09B4BE
:1050B00000FEFDCF8091D8008F7D8093D800809135
:1050C000E00082608093E0008091E00081FDFCCFF1
:1050D00010923E020E949F1764CD86E290E00E94EB
:1050E000F6291B821C821D828E83DFCE2B30310578
:1050F00008F0F9CD2FCE2B30310508F0A6CDDCCD50
:10510000289A219A229A23982B9880E58CBD08959D
:1051100090910D019F3F09F071C08F3F09F46EC05F
:10512000611144C01092580290915802423009F423
:1051300041C0433009F442C094604130E1F141E0A4
:1051400050E042175307E0F1909158024031510569
:1051500009F452C0C0F54230510509F446C0483048
:10516000510509F446C09CB520915802922B9CBD74
:1051700090915702992319F09DB591609DBD809340
:105180000D01E82FE295EF70F0E031A1282F2F708C
:1051900081E090E001C0880F2A95EAF7382B31A30F
:1051A00092A18095892382A381E0089590E2909353
:1051B0005802BACF986090935802C1CF9C60FBCF41
:1051C000440F551FBECF4034510549F040385105BA
:1051D00041F04032510539F621E0209357029260A8
:1051E00001C0936090935802BECF91E09093570214
:1051F000BACF21E0209357029160F4CF80E0089568
:10520000CF93DF938EBD0E94F216EC010DB407FE22
:1052100005C08EB590E0DF91CF9108950E94F216FF
:105220008C1B9D0B8436910588F38EEF9FEFF3CF97
:10523000CF93DF931EBC0E94F216EC010DB407FE63
:1052400005C08EB590E0DF91CF9108950E94F216CF
:105250008C1B9D0B8436910588F38EEF9FEFF3CF67
:105260000F931F93CF93DF93EC018C01060F171F51
:10527000C017D10719F490E080E005C089910E9421
:10528000002997FFF5CFDF91CF911F910F910895DE
:105290000F931F93CF93DF93EC018C01060F171F21
:1052A000C017D10739F490E080E0DF91CF911F91D2
:1052B0000F9108950E94182997FDF7CF8993F0CF99
:1052C00080910D018F3F29F1E82FE295EF70F0E01A
:1052D00041A18F7021E030E0B90102C0660F771F55
:1052E0008A95E2F7CB01942F982B91A392A1892B59
:1052F00082A38FEF80930D018DB58E7F8DBD9CB500
:1053000080915802809589238CBD1092580210928A
:1053100057020895AA1BBB1B51E107C0AA1FBB1F60
:10532000A617B70710F0A61BB70B881F991F5A9531
:10533000A9F780959095BC01CD01089597FB072EA4
:1053400016F4009407D077FD09D00E948A2907FC43
:1053500005D03EF4909581959F4F08957095619585
:105360007F4F0895EE0FFF1F0590F491E02D0994F3
:1053700069279627692778278727782708952F9206
:105380003F924F925F926F927F928F929F92AF92D5
:10539000BF92CF92DF92EF92FF920F931F93CF9322
:1053A000DF93CDB7DEB7CA1BDB0B0FB6F894DEBFB9
:1053B0000FBECDBF09942A88398848885F846E84DF
:1053C0007D848C849B84AA84B984C884DF80EE8029
:1053D000FD800C811B81AA81B981CE0FD11D0FB632
:1053E000F894DEBF0FBECDBFED010895F999FECF51
:1053F00092BD81BDF89A992780B50895A6E1B0E0E5
:1054000044E050E00C94302AA8E1B0E042E050E0E3
:105410000C94302A262FF999FECF92BD81BDF89ABF
:10542000019700B4021639F01FBA20BD0FB6F894E8
:10543000FA9AF99A0FBE08950396272F0E940B2A15
:105440000E940A2A252F0E940B2A242F0C940B2A33
:105450000196272F0E940B2A0C940A2ADC01CB010B
:10546000FC01F999FECF06C0F2BDE1BDF89A319674
:1054700000B40D9241505040B8F708955058BB27E2
:10548000AA270E94562A0C94652B0E942C2B38F0D8
:105490000E94332B20F039F49F3F19F426F40C942A
:1054A000292B0EF4E095E7FB0C94232BE92F0E94A7
:1054B0008A2B58F3BA17620773078407950720F001
:1054C00079F4A6F50C94AC2B0EF4E0950B2EBA2FC4
:1054D000A02D0B01B90190010C01CA01A0011124FA
:1054E000FF27591B99F0593F50F4503E68F11A16A6
:1054F000F040A22F232F342F4427585FF3CF469537
:1055000037952795A795F0405395C9F77EF41F1658
:10551000BA0B620B730B840BBAF09150A1F0FF0F22
:10552000BB1F661F771F881FC2F70EC0BA0F621F0E
:10553000731F841F48F4879577956795B795F795FE
:105540009E3F08F0B0CF9395880F08F09927EE0F93
:105550009795879508950E943C2BE3950C94762BA4
:105560000E94B72A6894B1110C94AD2B08950E9443
:10557000922B88F09F5798F0B92F9927B751B0F028
:10558000E1F0660F771F881F991F1AF0BA95C9F7C7
:1055900014C0B13091F00E94AC2BB1E008950C948E
:1055A000AC2B672F782F8827B85F39F0B93FCCF341
:1055B000869577956795B395D9F73EF49095809544
:1055C000709561957F4F8F4F9F4F0895E89409C064
:1055D00097FB3EF490958095709561957F4F8F4F26
:1055E0009F4F9923A9F0F92F96E9BB279395F6953C
:1055F000879577956795B795F111F8CFFAF4BB0FBA
:1056000011F460FF1BC06F5F7F4F8F4F9F4F16C01D
:10561000882311F096E911C0772321F09EE8872FA7
:10562000762F05C0662371F096E8862F70E060E063
:105630002AF09A95660F771F881FDAF7880F9695DC
:10564000879597F9089597F99F6780E870E060E083
:1056500008959FEF80EC089500240A94161617060B
:1056600018060906089500240A9412161306140653
:10567000050608950C94292B0E94922BD8F3E894E8
:10568000E0E0BB279F57F0F02AED3FE049EC06C071
:10569000EE0FBB0F661F771F881F28F0B23A620714
:1056A0007307840728F0B25A620B730B840BE395DF
:1056B0009A9572F7803830F49A95BB0F661F771F62
:1056C000881FD2F790480C942A2C092E0394000CC2
:1056D00011F4882352F0BB0F40F4BF2B11F460FF8C
:1056E00004C06F5F7F4F8F4F9F4F0895EF93E0FF90
:1056F00007C0A2EA2AED3FE049EC5FEB0E94562A80
:105700000E94652B0F90039401FC9058ECEAF0E0A6
:105710000C94362C57FD9058440F551F59F05F3F9D
:1057200071F04795880F97FB991F61F09F3F79F0C3
:1057300087950895121613061406551FF2CF469545
:10574000F1DF08C0161617061806991FF1CF8695C7
:105750007105610508940895E894BB2766277727AB
:10576000CB0197F908950E94C62B0C94652B0E94DB
:105770002C2B38F00E94332B20F0952311F00C9441
:10578000232B0C94292B11240C94AD2B0E948A2BD3
:1057900070F3959FC1F3950F50E0551F629FF00184
:1057A000729FBB27F00DB11D639FAA27F00DB11D9D
:1057B000AA1F649F6627B00DA11D661F829F222726
:1057C000B00DA11D621F739FB00DA11D621F839FAD
:1057D000A00D611D221F749F3327A00D611D231F83
:1057E000849F600D211D822F762F6A2F11249F57D1
:1057F00050409AF0F1F088234AF0EE0FFF1FBB1FD4
:10580000661F771F881F91505040A9F79E3F510592
:1058100080F00C94232B0C94AD2B5F3FE4F3983E67
:10582000D4F3869577956795B795F795E7959F5F3C
:10583000C1F7FE2B880F911D9695879597F90895CE
:105840009F930E943C2B0F9007FCEE5F0C94762BED
:105850009F3F31F0915020F4879577956795B795E4
:10586000880F911D9695879597F908959F938F932B
:105870007F936F93FF93EF939B01AC010E94B32B37
:10588000EF91FF910E944A2C2F913F914F915F9190
:105890000C94B32BDF93CF931F930F93FF92EF9250
:1058A000DF927B018C01689406C0DA2EEF010E9422
:1058B000C62BFE01E894A59125913591459155910E
:1058C000A6F3EF010E94562AFE019701A801DA947F
:1058D00069F7DF90EF90FF900F911F91CF91DF91CB
:1058E0000895FB01DC0104C08D910190801921F421
:1058F00041505040C8F7881B990B0895F894FFCF8A
:105900008C18B418571AB418571AE7180819571AE8
:10591000061A131AB11DB11DEC1DEC1D7F1E991E38
:105920001B1E1B1EDD1E4A1F5B1F5B1F37273B27ED
:105930009527A627B127BC27A327A327A327A327FB
:10594000A327BF27C227C627EB270C280F2811281B
:025950003528F8
:10595200DE0B5910381033102E10DD0B01FF81823F
:1059620083E200E900EA00B500B600B700CD00838B
:1059720001CC008A01920194012102230224022512
:1059820002260227022A02B300B4006F007000F45C
:10599200F5F6F700000000946697C63435C800900B
:1059A2000120034006800C010002000300040005F0
:1059B200000600C4FFD3FFE2FFF1FF00000F001E4C
:1059C200002D003C0040227B67014501CA00E7131D
:0459D2000014201489
:00000001FF
